{"abi":[{"type":"constructor","inputs":[],"stateMutability":"nonpayable"},{"type":"function","name":"doStuff","inputs":[],"outputs":[],"stateMutability":"nonpayable"}],"bytecode":{"object":"0x60a060405234801561001057600080fd5b50601960009081556001805460ff19908116821782556002805480840190915560de7f405787fa12a823e0f2b7631cc41b3ba8828b3321ca811111fa75cd3aa3bb5ace9091015591805260036020527f3617319a054d772f909f7c479a2cebe5066e836a939412e32403c99029b92eff8054909216179055607b60805260805160a26100a36000396000505060a26000f3fe6080604052348015600f57600080fd5b506004361060285760003560e01c8063874f33a114602d575b600080fd5b60336035565b005b6000805460429060016046565b5050565b80820180821115606657634e487b7160e01b600052601160045260246000fd5b9291505056fea26469706673582212201a5149ee572d29e9d9d213202716c17d49c64724890f4d747020a13cef4e8fac64736f6c63430008130033","linkReferences":{}},"methodIdentifiers":{"doStuff()":"874f33a1"},"id":29}